{
  "_format": "hh-sol-artifact-1",
  "contractName": "PaperRegistry",
  "sourceName": "contracts/PaperRegistry.sol",
  "abi": [
    {
      "anonymous": false,
      "inputs": [
        {
          "indexed": true,
          "internalType": "uint256",
          "name": "journalId",
          "type": "uint256"
        },
        {
          "indexed": false,
          "internalType": "string",
          "name": "name",
          "type": "string"
        },
        {
          "indexed": true,
          "internalType": "address",
          "name": "editor",
          "type": "address"
        },
        {
          "indexed": false,
          "internalType": "uint256",
          "name": "fee",
          "type": "uint256"
        }
      ],
      "name": "JournalCreated",
      "type": "event"
    },
    {
      "anonymous": false,
      "inputs": [
        {
          "indexed": true,
          "internalType": "string",
          "name": "ipfsCID",
          "type": "string"
        },
        {
          "indexed": true,
          "internalType": "address",
          "name": "author",
          "type": "address"
        },
        {
          "indexed": false,
          "internalType": "uint256",
          "name": "timestamp",
          "type": "uint256"
        }
      ],
      "name": "PaperSubmitted",
      "type": "event"
    },
    {
      "anonymous": false,
      "inputs": [
        {
          "indexed": true,
          "internalType": "string",
          "name": "ipfsCID",
          "type": "string"
        },
        {
          "indexed": true,
          "internalType": "uint256",
          "name": "journalId",
          "type": "uint256"
        },
        {
          "indexed": true,
          "internalType": "address",
          "name": "author",
          "type": "address"
        }
      ],
      "name": "PaperSubmittedToJournal",
      "type": "event"
    },
    {
      "inputs": [
        {
          "internalType": "uint256",
          "name": "",
          "type": "uint256"
        }
      ],
      "name": "allCIDs",
      "outputs": [
        {
          "internalType": "string",
          "name": "",
          "type": "string"
        }
      ],
      "stateMutability": "view",
      "type": "function"
    },
    {
      "inputs": [
        {
          "internalType": "string",
          "name": "_name",
          "type": "string"
        },
        {
          "internalType": "uint256",
          "name": "_submissionFee",
          "type": "uint256"
        }
      ],
      "name": "createJournal",
      "outputs": [],
      "stateMutability": "nonpayable",
      "type": "function"
    },
    {
      "inputs": [
        {
          "internalType": "string",
          "name": "_ipfsCID",
          "type": "string"
        }
      ],
      "name": "getPaper",
      "outputs": [
        {
          "internalType": "string",
          "name": "ipfsCID",
          "type": "string"
        },
        {
          "internalType": "address",
          "name": "author",
          "type": "address"
        },
        {
          "internalType": "uint256",
          "name": "timestamp",
          "type": "uint256"
        },
        {
          "internalType": "bool",
          "name": "exists",
          "type": "bool"
        }
      ],
      "stateMutability": "view",
      "type": "function"
    },
    {
      "inputs": [],
      "name": "journalCount",
      "outputs": [
        {
          "internalType": "uint256",
          "name": "",
          "type": "uint256"
        }
      ],
      "stateMutability": "view",
      "type": "function"
    },
    {
      "inputs": [
        {
          "internalType": "uint256",
          "name": "",
          "type": "uint256"
        }
      ],
      "name": "journals",
      "outputs": [
        {
          "internalType": "string",
          "name": "name",
          "type": "string"
        },
        {
          "internalType": "address",
          "name": "editor",
          "type": "address"
        },
        {
          "internalType": "uint256",
          "name": "submissionFee",
          "type": "uint256"
        }
      ],
      "stateMutability": "view",
      "type": "function"
    },
    {
      "inputs": [
        {
          "internalType": "string",
          "name": "_ipfsCID",
          "type": "string"
        }
      ],
      "name": "paperExists",
      "outputs": [
        {
          "internalType": "bool",
          "name": "",
          "type": "bool"
        }
      ],
      "stateMutability": "view",
      "type": "function"
    },
    {
      "inputs": [
        {
          "internalType": "string",
          "name": "",
          "type": "string"
        }
      ],
      "name": "paperToJournal",
      "outputs": [
        {
          "internalType": "uint256",
          "name": "",
          "type": "uint256"
        }
      ],
      "stateMutability": "view",
      "type": "function"
    },
    {
      "inputs": [
        {
          "internalType": "string",
          "name": "_ipfsCID",
          "type": "string"
        }
      ],
      "name": "submitPaper",
      "outputs": [],
      "stateMutability": "nonpayable",
      "type": "function"
    },
    {
      "inputs": [
        {
          "internalType": "string",
          "name": "_ipfsCID",
          "type": "string"
        },
        {
          "internalType": "uint256",
          "name": "_journalId",
          "type": "uint256"
        }
      ],
      "name": "submitToJournal",
      "outputs": [],
      "stateMutability": "payable",
      "type": "function"
    },
    {
      "inputs": [],
      "name": "totalPapers",
      "outputs": [
        {
          "internalType": "uint256",
          "name": "",
          "type": "uint256"
        }
      ],
      "stateMutability": "view",
      "type": "function"
    }
  ],
  "bytecode": "0x608060405234801561001057600080fd5b50610e7e806100206000396000f3fe6080604052600436106100915760003560e01c8063b2370b7511610059578063b2370b751461014c578063de7cc07f14610184578063df079473146101a4578063ece19468146101d4578063f6520a281461020157600080fd5b8063197cc19e146100965780631b133e5c146100ce578063336486bf146100f25780633ebd27dc14610122578063a32bc05a14610137575b600080fd5b3480156100a257600080fd5b506100b66100b136600461094f565b610221565b6040516100c5939291906109ae565b60405180910390f35b3480156100da57600080fd5b506100e460035481565b6040519081526020016100c5565b3480156100fe57600080fd5b5061011261010d366004610a25565b6102d5565b60405190151581526020016100c5565b610135610130366004610a67565b610306565b005b34801561014357600080fd5b506001546100e4565b34801561015857600080fd5b506100e4610167366004610ac9565b805160208183018101805160048252928201919093012091525481565b34801561019057600080fd5b5061013561019f366004610a25565b61043a565b3480156101b057600080fd5b506101c46101bf366004610a25565b610449565b6040516100c59493929190610b7a565b3480156101e057600080fd5b506101f46101ef36600461094f565b610537565b6040516100c59190610bb4565b34801561020d57600080fd5b5061013561021c366004610a67565b6105e3565b60026020526000908152604090208054819061023c90610bce565b80601f016020809104026020016040519081016040528092919081815260200182805461026890610bce565b80156102b55780601f1061028a576101008083540402835291602001916102b5565b820191906000526020600020905b81548152906001019060200180831161029857829003601f168201915b50505050600183015460029093015491926001600160a01b031691905083565b60008083836040516102e8929190610c08565b9081526040519081900360200190206003015460ff16905092915050565b60008111801561031857506003548111155b61035e5760405162461bcd60e51b8152602060048201526012602482015271125b9d985b1a59081a9bdd5c9b985b08125160721b60448201526064015b60405180910390fd5b6000818152600260208190526040909120908101543410156103c25760405162461bcd60e51b815260206004820152601b60248201527f496e73756666696369656e74207375626d697373696f6e2066656500000000006044820152606401610355565b6103cd84843361072b565b81600485856040516103e0929190610c08565b90815260405190819003602001812091909155339083906104049087908790610c08565b604051908190038120907fcd6c8eaeae370ca6fdf1243db0b0f45c4a0b699cd789979bd07e6817a1f9969990600090a450505050565b61044582823361072b565b5050565b606060008060008060008787604051610463929190610c08565b908152604051908190036020019020600181015460028201546003830154835493945084936001600160a01b039093169260ff9091169084906104a590610bce565b80601f01602080910402602001604051908101604052809291908181526020018280546104d190610bce565b801561051e5780601f106104f35761010080835404028352916020019161051e565b820191906000526020600020905b81548152906001019060200180831161050157829003601f168201915b5050505050935094509450945094505092959194509250565b6001818154811061054757600080fd5b90600052602060002001600091509050805461056290610bce565b80601f016020809104026020016040519081016040528092919081815260200182805461058e90610bce565b80156105db5780601f106105b0576101008083540402835291602001916105db565b820191906000526020600020905b8154815290600101906020018083116105be57829003601f168201915b505050505081565b816106305760405162461bcd60e51b815260206004820152601c60248201527f4a6f75726e616c206e616d652063616e6e6f7420626520656d707479000000006044820152606401610355565b6003805490600061064083610c18565b9190505550604051806060016040528084848080601f016020809104026020016040519081016040528093929190818152602001838380828437600092018290525093855250503360208085019190915260409384018690526003548352600290525020815181906106b29082610c8e565b5060208201516001820180546001600160a01b0319166001600160a01b0390921691909117905560409182015160029091015560035490513391907fd6695d147c42eb807362e7ef7540a30591e02a7d9a61ee90cf43518ee40838999061071e90879087908790610d4e565b60405180910390a3505050565b8161076e5760405162461bcd60e51b81526020600482015260136024820152724349442063616e6e6f7420626520656d70747960681b6044820152606401610355565b60008383604051610780929190610c08565b9081526040519081900360200190206003015460ff16156107e35760405162461bcd60e51b815260206004820152601860248201527f506170657220616c7265616479207265676973746572656400000000000000006044820152606401610355565b604051806080016040528084848080601f01602080910402602001604051908101604052809392919081815260200183838082843760009201829052509385525050506001600160a01b038416602083015242604080840191909152600160609093019290925290516108599086908690610c08565b908152604051908190036020019020815181906108769082610c8e565b506020820151600182810180546001600160a01b0319166001600160a01b0390931692909217909155604083015160028301556060909201516003909101805460ff1916911515919091179055805480820182556000919091527fb10e2d527612073b26eecdfd717e6a320cf44b4afac2b0732d9fcbe2b7fa0cf6016108fd838583610d87565b50806001600160a01b03168383604051610918929190610c08565b604051908190038120428252907f11d7af2895fc55fb5ac654aba4d7aa14e6ffc1f5aec29142b027e0a9e2ba2a6b9060200161071e565b60006020828403121561096157600080fd5b5035919050565b6000815180845260005b8181101561098e57602081850181015186830182015201610972565b506000602082860101526020601f19601f83011685010191505092915050565b6060815260006109c16060830186610968565b6001600160a01b039490941660208301525060400152919050565b60008083601f8401126109ee57600080fd5b50813567ffffffffffffffff811115610a0657600080fd5b602083019150836020828501011115610a1e57600080fd5b9250929050565b60008060208385031215610a3857600080fd5b823567ffffffffffffffff811115610a4f57600080fd5b610a5b858286016109dc565b90969095509350505050565b600080600060408486031215610a7c57600080fd5b833567ffffffffffffffff811115610a9357600080fd5b610a9f868287016109dc565b909790965060209590950135949350505050565b634e487b7160e01b600052604160045260246000fd5b600060208284031215610adb57600080fd5b813567ffffffffffffffff80821115610af357600080fd5b818401915084601f830112610b0757600080fd5b813581811115610b1957610b19610ab3565b604051601f8201601f19908116603f01168101908382118183101715610b4157610b41610ab3565b81604052828152876020848701011115610b5a57600080fd5b826020860160208301376000928101602001929092525095945050505050565b608081526000610b8d6080830187610968565b6001600160a01b039590951660208301525060408101929092521515606090910152919050565b602081526000610bc76020830184610968565b9392505050565b600181811c90821680610be257607f821691505b602082108103610c0257634e487b7160e01b600052602260045260246000fd5b50919050565b8183823760009101908152919050565b600060018201610c3857634e487b7160e01b600052601160045260246000fd5b5060010190565b601f821115610c8957600081815260208120601f850160051c81016020861015610c665750805b601f850160051c820191505b81811015610c8557828155600101610c72565b5050505b505050565b815167ffffffffffffffff811115610ca857610ca8610ab3565b610cbc81610cb68454610bce565b84610c3f565b602080601f831160018114610cf15760008415610cd95750858301515b600019600386901b1c1916600185901b178555610c85565b600085815260208120601f198616915b82811015610d2057888601518255948401946001909101908401610d01565b5085821015610d3e5787850151600019600388901b60f8161c191681555b5050505050600190811b01905550565b604081528260408201528284606083013760006060848301015260006060601f19601f8601168301019050826020830152949350505050565b67ffffffffffffffff831115610d9f57610d9f610ab3565b610db383610dad8354610bce565b83610c3f565b6000601f841160018114610de75760008515610dcf5750838201355b600019600387901b1c1916600186901b178355610e41565b600083815260209020601f19861690835b82811015610e185786850135825560209485019460019092019101610df8565b5086821015610e355760001960f88860031b161c19848701351681555b505060018560011b0183555b505050505056fea26469706673582212200bf55a5777ea1cd2e5ac03c47d6dbf2828a4d530562df10823f3bd2a603dc21a64736f6c63430008130033",
  "linkReferences": {},
  "deployedLinkReferences": {}
}