{
  "_format": "hh-sol-artifact-1",
  "contractName": "PaperRegistry",
  "sourceName": "contracts/PaperRegistry.sol",
  "abi": [
    {
      "anonymous": false,
      "inputs": [
        {
          "indexed": true,
          "internalType": "string",
          "name": "ipfsCID",
          "type": "string"
        },
        {
          "indexed": true,
          "internalType": "address",
          "name": "author",
          "type": "address"
        },
        {
          "indexed": false,
          "internalType": "uint256",
          "name": "timestamp",
          "type": "uint256"
        }
      ],
      "name": "PaperSubmitted",
      "type": "event"
    },
    {
      "inputs": [
        {
          "internalType": "uint256",
          "name": "",
          "type": "uint256"
        }
      ],
      "name": "allCIDs",
      "outputs": [
        {
          "internalType": "string",
          "name": "",
          "type": "string"
        }
      ],
      "stateMutability": "view",
      "type": "function"
    },
    {
      "inputs": [
        {
          "internalType": "string",
          "name": "_ipfsCID",
          "type": "string"
        }
      ],
      "name": "getPaper",
      "outputs": [
        {
          "internalType": "string",
          "name": "ipfsCID",
          "type": "string"
        },
        {
          "internalType": "address",
          "name": "author",
          "type": "address"
        },
        {
          "internalType": "uint256",
          "name": "timestamp",
          "type": "uint256"
        },
        {
          "internalType": "bool",
          "name": "exists",
          "type": "bool"
        }
      ],
      "stateMutability": "view",
      "type": "function"
    },
    {
      "inputs": [
        {
          "internalType": "string",
          "name": "_ipfsCID",
          "type": "string"
        }
      ],
      "name": "paperExists",
      "outputs": [
        {
          "internalType": "bool",
          "name": "",
          "type": "bool"
        }
      ],
      "stateMutability": "view",
      "type": "function"
    },
    {
      "inputs": [
        {
          "internalType": "string",
          "name": "_ipfsCID",
          "type": "string"
        }
      ],
      "name": "submitPaper",
      "outputs": [],
      "stateMutability": "nonpayable",
      "type": "function"
    },
    {
      "inputs": [],
      "name": "totalPapers",
      "outputs": [
        {
          "internalType": "uint256",
          "name": "",
          "type": "uint256"
        }
      ],
      "stateMutability": "view",
      "type": "function"
    }
  ],
  "bytecode": "0x608060405234801561001057600080fd5b50610862806100206000396000f3fe608060405234801561001057600080fd5b50600436106100575760003560e01c8063336486bf1461005c578063a32bc05a14610084578063de7cc07f14610095578063df079473146100aa578063ece19468146100cd575b600080fd5b61006f61006a3660046104d7565b6100ed565b60405190151581526020015b60405180910390f35b60015460405190815260200161007b565b6100a86100a33660046104d7565b61011e565b005b6100bd6100b83660046104d7565b61033d565b60405161007b949392919061058f565b6100e06100db3660046105c9565b61042b565b60405161007b91906105e2565b60008083836040516101009291906105fc565b9081526040519081900360200190206003015460ff16905092915050565b806101665760405162461bcd60e51b81526020600482015260136024820152724349442063616e6e6f7420626520656d70747960681b60448201526064015b60405180910390fd5b600082826040516101789291906105fc565b9081526040519081900360200190206003015460ff16156101db5760405162461bcd60e51b815260206004820152601860248201527f506170657220616c726561647920726567697374657265640000000000000000604482015260640161015d565b604051806080016040528083838080601f0160208091040260200160405190810160405280939291908181526020018383808284376000920182905250938552505033602084015250426040808401919091526001606090930192909252905161024890859085906105fc565b9081526040519081900360200190208151819061026590826106ab565b506020820151600182810180546001600160a01b0319166001600160a01b0390931692909217909155604083015160028301556060909201516003909101805460ff1916911515919091179055805480820182556000919091527fb10e2d527612073b26eecdfd717e6a320cf44b4afac2b0732d9fcbe2b7fa0cf6016102ec82848361076b565b5060405133906102ff90849084906105fc565b604051908190038120428252907f11d7af2895fc55fb5ac654aba4d7aa14e6ffc1f5aec29142b027e0a9e2ba2a6b9060200160405180910390a35050565b6060600080600080600087876040516103579291906105fc565b908152604051908190036020019020600181015460028201546003830154835493945084936001600160a01b039093169260ff90911690849061039990610622565b80601f01602080910402602001604051908101604052809291908181526020018280546103c590610622565b80156104125780601f106103e757610100808354040283529160200191610412565b820191906000526020600020905b8154815290600101906020018083116103f557829003601f168201915b5050505050935094509450945094505092959194509250565b6001818154811061043b57600080fd5b90600052602060002001600091509050805461045690610622565b80601f016020809104026020016040519081016040528092919081815260200182805461048290610622565b80156104cf5780601f106104a4576101008083540402835291602001916104cf565b820191906000526020600020905b8154815290600101906020018083116104b257829003601f168201915b505050505081565b600080602083850312156104ea57600080fd5b823567ffffffffffffffff8082111561050257600080fd5b818501915085601f83011261051657600080fd5b81358181111561052557600080fd5b86602082850101111561053757600080fd5b60209290920196919550909350505050565b6000815180845260005b8181101561056f57602081850181015186830182015201610553565b506000602082860101526020601f19601f83011685010191505092915050565b6080815260006105a26080830187610549565b6001600160a01b039590951660208301525060408101929092521515606090910152919050565b6000602082840312156105db57600080fd5b5035919050565b6020815260006105f56020830184610549565b9392505050565b8183823760009101908152919050565b634e487b7160e01b600052604160045260246000fd5b600181811c9082168061063657607f821691505b60208210810361065657634e487b7160e01b600052602260045260246000fd5b50919050565b601f8211156106a657600081815260208120601f850160051c810160208610156106835750805b601f850160051c820191505b818110156106a25782815560010161068f565b5050505b505050565b815167ffffffffffffffff8111156106c5576106c561060c565b6106d9816106d38454610622565b8461065c565b602080601f83116001811461070e57600084156106f65750858301515b600019600386901b1c1916600185901b1785556106a2565b600085815260208120601f198616915b8281101561073d5788860151825594840194600190910190840161071e565b508582101561075b5787850151600019600388901b60f8161c191681555b5050505050600190811b01905550565b67ffffffffffffffff8311156107835761078361060c565b610797836107918354610622565b8361065c565b6000601f8411600181146107cb57600085156107b35750838201355b600019600387901b1c1916600186901b178355610825565b600083815260209020601f19861690835b828110156107fc57868501358255602094850194600190920191016107dc565b50868210156108195760001960f88860031b161c19848701351681555b505060018560011b0183555b505050505056fea2646970667358221220724beeb0eb13543fa27945acccdc199e785cac9c4ad4ada68bf13f163a65349664736f6c63430008130033",
  "linkReferences": {},
  "deployedLinkReferences": {}
}