{
  "_format": "hh-sol-artifact-1",
  "contractName": "ReviewManager",
  "sourceName": "contracts/ReviewManager.sol",
  "abi": [
    {
      "inputs": [
        {
          "internalType": "address",
          "name": "_registry",
          "type": "address"
        }
      ],
      "stateMutability": "nonpayable",
      "type": "constructor"
    },
    {
      "anonymous": false,
      "inputs": [
        {
          "indexed": true,
          "internalType": "string",
          "name": "ipfsHash",
          "type": "string"
        },
        {
          "indexed": true,
          "internalType": "address",
          "name": "reviewer",
          "type": "address"
        },
        {
          "indexed": false,
          "internalType": "uint8",
          "name": "score",
          "type": "uint8"
        }
      ],
      "name": "ReviewSubmitted",
      "type": "event"
    },
    {
      "anonymous": false,
      "inputs": [
        {
          "indexed": true,
          "internalType": "address",
          "name": "reviewer",
          "type": "address"
        }
      ],
      "name": "ReviewerRegistered",
      "type": "event"
    },
    {
      "inputs": [
        {
          "internalType": "string",
          "name": "_ipfsHash",
          "type": "string"
        },
        {
          "internalType": "uint256",
          "name": "_index",
          "type": "uint256"
        }
      ],
      "name": "getReview",
      "outputs": [
        {
          "internalType": "address",
          "name": "reviewer",
          "type": "address"
        },
        {
          "internalType": "uint8",
          "name": "score",
          "type": "uint8"
        },
        {
          "internalType": "string",
          "name": "comments",
          "type": "string"
        }
      ],
      "stateMutability": "view",
      "type": "function"
    },
    {
      "inputs": [
        {
          "internalType": "string",
          "name": "",
          "type": "string"
        },
        {
          "internalType": "address",
          "name": "",
          "type": "address"
        }
      ],
      "name": "hasReviewed",
      "outputs": [
        {
          "internalType": "bool",
          "name": "",
          "type": "bool"
        }
      ],
      "stateMutability": "view",
      "type": "function"
    },
    {
      "inputs": [
        {
          "internalType": "address",
          "name": "",
          "type": "address"
        }
      ],
      "name": "isReviewer",
      "outputs": [
        {
          "internalType": "bool",
          "name": "",
          "type": "bool"
        }
      ],
      "stateMutability": "view",
      "type": "function"
    },
    {
      "inputs": [],
      "name": "registerReviewer",
      "outputs": [],
      "stateMutability": "nonpayable",
      "type": "function"
    },
    {
      "inputs": [],
      "name": "registry",
      "outputs": [
        {
          "internalType": "contract IPaperRegistry",
          "name": "",
          "type": "address"
        }
      ],
      "stateMutability": "view",
      "type": "function"
    },
    {
      "inputs": [
        {
          "internalType": "string",
          "name": "_ipfsHash",
          "type": "string"
        }
      ],
      "name": "reviewCount",
      "outputs": [
        {
          "internalType": "uint256",
          "name": "",
          "type": "uint256"
        }
      ],
      "stateMutability": "view",
      "type": "function"
    },
    {
      "inputs": [
        {
          "internalType": "string",
          "name": "_ipfsHash",
          "type": "string"
        },
        {
          "internalType": "uint8",
          "name": "_score",
          "type": "uint8"
        },
        {
          "internalType": "string",
          "name": "_comments",
          "type": "string"
        }
      ],
      "name": "submitReview",
      "outputs": [],
      "stateMutability": "nonpayable",
      "type": "function"
    }
  ],
  "bytecode": "0x60a060405234801561001057600080fd5b50604051610d1c380380610d1c83398101604081905261002f9161009a565b6001600160a01b0381166100895760405162461bcd60e51b815260206004820152601860248201527f496e76616c696420726567697374727920616464726573730000000000000000604482015260640160405180910390fd5b6001600160a01b03166080526100ca565b6000602082840312156100ac57600080fd5b81516001600160a01b03811681146100c357600080fd5b9392505050565b608051610c316100eb6000396000818160d901526104a40152610c316000f3fe608060405234801561001057600080fd5b506004361061007d5760003560e01c80637b1039991161005b5780637b103999146100d457806380fcd81714610113578063f1ba707214610161578063fdc6258a1461017457600080fd5b80631126ab64146100825780633f46b3091461008c57806363020d39146100b2575b600080fd5b61008a610197565b005b61009f61009a3660046107a4565b610233565b6040519081526020015b60405180910390f35b6100c56100c03660046107e6565b61025f565b6040516100a993929190610832565b6100fb7f000000000000000000000000000000000000000000000000000000000000000081565b6040516001600160a01b0390911681526020016100a9565b6101516101213660046108cc565b81516020818401810180516002825292820194820194909420919093529091526000908152604090205460ff1681565b60405190151581526020016100a9565b61008a61016f36600461098e565b6103ca565b610151610182366004610a19565b60006020819052908152604090205460ff1681565b3360009081526020819052604090205460ff16156101f15760405162461bcd60e51b8152602060048201526012602482015271105b1c9958591e481c9959da5cdd195c995960721b60448201526064015b60405180910390fd5b33600081815260208190526040808220805460ff19166001179055517f7480236920fc0a1f04cac50fb0a77787e7bc4c17392cf683ec4c9cbb12dc49e39190a2565b600060018383604051610247929190610a3b565b90815260405190819003602001902054905092915050565b600080606060018686604051610276929190610a3b565b9081526040519081900360200190205484106102ca5760405162461bcd60e51b8152602060048201526013602482015272496e646578206f7574206f6620626f756e647360681b60448201526064016101e8565b6000600187876040516102de929190610a3b565b908152602001604051809103902085815481106102fd576102fd610a4b565b6000918252602090912060029091020180546001820180549293506001600160a01b03821692600160a01b90920460ff1691819061033a90610a61565b80601f016020809104026020016040519081016040528092919081815260200182805461036690610a61565b80156103b35780601f10610388576101008083540402835291602001916103b3565b820191906000526020600020905b81548152906001019060200180831161039657829003601f168201915b505050505090509350935093505093509350939050565b3360009081526020819052604090205460ff166104295760405162461bcd60e51b815260206004820152601960248201527f4e6f74206120726567697374657265642072657669657765720000000000000060448201526064016101e8565b60018360ff1610158015610441575060058360ff1611155b61048d5760405162461bcd60e51b815260206004820152601d60248201527f53636f7265206d757374206265206265747765656e203120616e64203500000060448201526064016101e8565b60405163336486bf60e01b81526001600160a01b037f0000000000000000000000000000000000000000000000000000000000000000169063336486bf906104db9088908890600401610a9b565b602060405180830381865afa1580156104f8573d6000803e3d6000fd5b505050506040513d601f19601f8201168201806040525081019061051c9190610aca565b6105685760405162461bcd60e51b815260206004820152601b60248201527f5061706572206e6f7420666f756e6420696e207265676973747279000000000060448201526064016101e8565b6002858560405161057a929190610a3b565b9081526040805160209281900383019020336000908152925290205460ff16156105e65760405162461bcd60e51b815260206004820152601b60248201527f416c72656164792072657669657765642074686973207061706572000000000060448201526064016101e8565b600185856040516105f8929190610a3b565b90815260200160405180910390206040518060600160405280336001600160a01b031681526020018560ff16815260200184848080601f0160208091040260200160405190810160405280939291908181526020018383808284376000920182905250939094525050835460018181018655948252602091829020845160029092020180549285015160ff16600160a01b026001600160a81b03199093166001600160a01b039092169190911791909117815560408301519293909290830191506106c39082610b3b565b5050506001600286866040516106da929190610a3b565b90815260408051602092819003830181203360008181529190945291909120805460ff191693151593909317909255906107179087908790610a3b565b60405190819003812060ff86168252907fa13c42d962c5a1d115b3e2acd1313f65828fb9b8f7e2df6ef8354f3c0bf414f39060200160405180910390a35050505050565b60008083601f84011261076d57600080fd5b50813567ffffffffffffffff81111561078557600080fd5b60208301915083602082850101111561079d57600080fd5b9250929050565b600080602083850312156107b757600080fd5b823567ffffffffffffffff8111156107ce57600080fd5b6107da8582860161075b565b90969095509350505050565b6000806000604084860312156107fb57600080fd5b833567ffffffffffffffff81111561081257600080fd5b61081e8682870161075b565b909790965060209590950135949350505050565b60018060a01b03841681526000602060ff85168184015260606040840152835180606085015260005b818110156108775785810183015185820160800152820161085b565b506000608082860101526080601f19601f83011685010192505050949350505050565b634e487b7160e01b600052604160045260246000fd5b80356001600160a01b03811681146108c757600080fd5b919050565b600080604083850312156108df57600080fd5b823567ffffffffffffffff808211156108f757600080fd5b818501915085601f83011261090b57600080fd5b81358181111561091d5761091d61089a565b604051601f8201601f19908116603f011681019083821181831017156109455761094561089a565b8160405282815288602084870101111561095e57600080fd5b826020860160208301376000602084830101528096505050505050610985602084016108b0565b90509250929050565b6000806000806000606086880312156109a657600080fd5b853567ffffffffffffffff808211156109be57600080fd5b6109ca89838a0161075b565b90975095506020880135915060ff821682146109e557600080fd5b909350604087013590808211156109fb57600080fd5b50610a088882890161075b565b969995985093965092949392505050565b600060208284031215610a2b57600080fd5b610a34826108b0565b9392505050565b8183823760009101908152919050565b634e487b7160e01b600052603260045260246000fd5b600181811c90821680610a7557607f821691505b602082108103610a9557634e487b7160e01b600052602260045260246000fd5b50919050565b60208152816020820152818360408301376000818301604090810191909152601f909201601f19160101919050565b600060208284031215610adc57600080fd5b81518015158114610a3457600080fd5b601f821115610b3657600081815260208120601f850160051c81016020861015610b135750805b601f850160051c820191505b81811015610b3257828155600101610b1f565b5050505b505050565b815167ffffffffffffffff811115610b5557610b5561089a565b610b6981610b638454610a61565b84610aec565b602080601f831160018114610b9e5760008415610b865750858301515b600019600386901b1c1916600185901b178555610b32565b600085815260208120601f198616915b82811015610bcd57888601518255948401946001909101908401610bae565b5085821015610beb5787850151600019600388901b60f8161c191681555b5050505050600190811b0190555056fea26469706673582212200d12a505bd630591aedbf0980975a69d72bb4424e32a05de85a08cc89d58612f64736f6c63430008130033",
  "linkReferences": {},
  "deployedLinkReferences": {}
}